S01C000054444B343135355F47726F7570315F4E6F6465322E73726563A2
S1130000C2C00000E0C0000043C30000DCC0000028
S1130010DAC00000D8C00000D6C00000D4C0000080
S1130020D2C00000D0C00000CEC00000CCC0000090
S1130030CAC00000C8C00000C6C00000C4C00000A0
S1130040C2C00000C0C00000BEC00000BCC00000B0
S1130050BAC00000B8C00000B6C00000B4C00000C0
S1130060B2C00000B0C00000AEC00000ACC00000D0
S1130070AAC00000A8C00000A6C00000A4C00000E0
S11300800EC60000A0C000009EC000003BC60000D9
S11300909AC0000098C0000096C000000C94E608C6
S11300A092C0000090C000008EC000008CC0000010
S11300B08AC0000088C0000086C0000084C0000020
S11300C082C0000080C000000C94A3087CC0000023
S11300D07AC0000078C0000076C0000074C0000040
S11300E072C0000001095309530953095309530904
S11300F0530953090109530953095309530953096E
S1130100530953090309530953095309530953095B
S113011053095309530953095309530953095309FB
S1130120530953090309530953095309530953093B
S113013053095309530953095309530953095309DB
S1130140530953094F0953095309530953095309CF
S1130150530953092C0953095309530953095309E2
S113016053095309530953095309530953095309AB
S113017053095309200953095309530953095309CE
S1130180530953093E0911241FBECFEFD1E2DEBF4C
S1130190CDBF00E00CBF15E0A0E0B2E0E0E9F1E281
S11301A000E00BBF02C007900D92AA35B107D9F742
S11301B025E0AAE5B5E001C01D92A838B207E1F731
S11301C061D40C94C610E6C4482F60EE8FE0CEC410
S11301D00895CF93DF931F921F92CDB7DEB78BD7CD
S11301E05ED441E050E0BE016F5F7F4F8EE059D492
S11301F08981982F907E903869F01F928F938DE0BB
S113020092E09F938F930E94CE0D0F900F900F90CA
S11302100F9004C080E592E00E948E0980E0D4DF54
S113022041E050E0BE016E5F7F4F8FE03AD48A8197
S11302301F928F9383E692E09F938F930E94CE0D3B
S11302400F900F900F900F900F900F90DF91CF9120
S11302500895BF92CF92DF92EF92FF920F931F9374
S1130260CF93DF93CDB7DEB72B970FB6F894DEBFED
S11302700FBECDBF8C017B01D42EC22EB32E88E0DD
S1130280841700F581E892E00E948E098D2D90E09C
S11302900E949C0981EB92E00E948E0988E090E024
S11302A00E949C0987E794E00E948E0968E070E050
S11302B06894DD24D3F8EC2DFB2DDE01149620E0A8
S11302C030E006C0642F70E016161706A4F307C0CA
S11302D091919D932F5F3F4F26173707CCF3FA82F6
S11302E0E982DB828BE0FE013196D80101900D9208
S11302F08A95E1F7C8012B960FB6F894DEBF0FBEBE
S1130300CDBFDF91CF911F910F91FF90EF90DF90C0
S1130310CF90BF900895DF92EF92FF920F931F93B7
S1130320CF93DF9300D0CDB7DEB78C01F62E6623D2
S113033089F081E06817C1F0E2E06E17F9F0F3E0AC
S11303406F1304C082EC92E0E9D74BC08BEE92E0CD
S1130350E5D747C00F2EF6E3DF2EF02D0F2EF5E381
S1130360EF2EF02D81E313C00F2EF6E4DF2EF02DD7
S11303700F2EF5E4EF2EF02D81E409C00F2EF6E5E3
S1130380DF2EF02D0F2EF5E5EF2EF02D81E5F8018F
S113039020813181A90156954795569547955695E3
S11303A0479549832295220F207E2A8342E050E01C
S11303B0BE016F5F7F4F96D3F80192819B8341E02A
S11303C050E0BE016D5F7F4F8E2D8CD34B81442353
S11303D031F050E0B8016D5F7F4F8D2D83D38F2DA9
S11303E0A2D30F900F900F90DF91CF911F910F9197
S11303F0FF90EF90DF900895CF93DF931F92CDB7D6
S1130400DEB741E050E0BE016F5F7F4F80E349D328
S1130410898183FF16C041E050E0BE016F5F7F4FCA
S113042080E43FD3898183FF0EC041E050E0BE01E8
S11304306F5F7F4F80E535D3898183FD06C082E0FD
S113044005C080E003C081E001C084E00F90DF912B
S1130450CF9108950F931F93CF93DF938C01CCDF3B
S11304608430C9F014C0C8DF2197209771F484E068
S113047093E00E94E40D2FEF83ED90E32150804040
S11304809040E1F700C000000AC0843061F3682F97
S1130490C80141DF04C0B0DFCEEFDFE7F6CFDF9164
S11304A0CF911F910F910895FC01818182958695CA
S11304B08770208190E038E0239F800D911D1124E6
S11304C00895CF92DF92EF92FF920F931F93CF93F1
S11304D0DF93CDB7DEB72B970FB6F894DEBF0FBE10
S11304E0CDBF8C01F62E40E061E08CE23FD381E089
S11304F0F81671F082E0F816A9F08FE493E00ED7B5
S113050020E030E04FEF6FEF7FEFC801A2DE32C092
S11305100F2EF6E6DF2EF02D0F2EF5E6CF2EF02D62
S113052081E609C00F2EF6E7DF2EF02D0F2EF5E73A
S1130530CF2EF02D81E742E050E0BE016F5F7F4F88
S1130540B0D2CE010196B0DF7C0141E050E0BE01A3
S11305506D5F7F4F8C2DA5D24B8150E0BE016C5F47
S11305607F4F8D2D9ED29E012C5F3F4F4B81B70153
S1130570C8016FDEC8012B960FB6F894DEBF0FBE1C
S1130580CDBFDF91CF911F910F91FF90EF90DF903E
S1130590CF90089580FD07C081FD07C088E693E0F1
S11305A0BDD680E0089581E0089582E00895CF9358
S11305B0DF931F92CDB7DEB741E050E0BE016F5F1D
S11305C07F4F8CE26ED2898180FD04C081FF04C01C
S11305D082E003C081E001C08FEF0F90DF91CF91E3
S11305E00895CF93DF93CDB7DEB72B970FB6F8946A
S11305F0DEBF0FBECDBFDBDF8F3F39F0682FCE01EA
S113060001965FDFCE0101969CD32B960FB6F8942A
S1130610DEBF0FBECDBFDF91CF910895EF92FF9261
S11306200F931F93CF93DF937C018AE893E076D6F0
S1130630F7018081918180D68EE993E06FD6F7012E
S1130640828190E079D689EA93E068D6F7018281C5
S11306508823A1F087010D5F1F4FC0E0D0E0F801AF
S113066081918F0190E068D682EB93E057D6219672
S1130670F701228130E0C217D3078CF387E794E0B7
S11306804DD6DF91CF911F910F91FF90EF90089578
S11306901F920F920FB60F9211240BB60F922F9345
S11306A03F934F935F936F937F938F939F93AF93F6
S11306B0BF93EF93FF93CF93DF93CDB7DEB72B9721
S11306C0DEBFCDBF84EB93E029D646D263DF682F2B
S11306D0CE010196F6DE83ED93E020D6CE0101969D
S11306E09DDF8DED93E01AD678942B960FB6F8948F
S11306F0DEBF0FBECDBFDF91CF91FF91EF91BF91D0
S1130700AF919F918F917F916F915F914F913F91A5
S11307102F910F900BBE0F900FBE0F901F90189546
S1130720CF93DF9300D0CDB7DEB79EE5998393E0F6
S11307309A832FEF829FC001112464E670E00E9427
S1130740D30B6B8363E0CE0101961ED50F900F90FF
S11307500F90DF91CF910895892B31F0E2E0F1E021
S11307608081826080830895E2E0F1E080818D7F62
S113077080830895E1E0F1E080818260808380815C
S113078088608083808180668083E2E0F1E08081FC
S11307908F7B80832FEF89EF90E021508040904041
S11307A0E1F700C0000080818064808380E0B8CFDE
S11307B008957894DFD4DEDF2DEC3CEC4CE45EE36A
S11307C06DEC7CEC8CEC9EE376C30895E2E0F1E002
S11307D08081877D80832AE62A95F1F700C0809185
S11307E0060190E0982F88272081286020832AE63C
S11307F02A95F1F700C020910601822B91958195ED
S113080091090895CF93DF93EC01992334F081E0AB
S113081090E0A2DF8C2F84DF06C080E090E09CDFB4
S11308208C2F81957DDFDF91CF910895CF93DF9356
S1130830CDB7DEB72B970FB6F894DEBF0FBECDBF92
S113084080915A0590915B05892B19F0F5D0892B7D
S113085039F08CE390E090930B0280930A0221C05C
S113086080910A0290910B020197009729F09093CE
S11308700B0280930A0215C08CE390E090930B0264
S113088080930A028DEF93E00E94E40D2CE535E09D
S113089041E066E070E0CE010196DBDCCE0101961A
S11308A0D9DD2B960FB6F894DEBF0FBECDBFDF9116
S11308B0CF91089521E030E030935B0520935A05F1
S11308C080935C05A5C00895AED010925B0510928C
S11308D05A050895CF93DF93CDB7DEB72B970FB6A4
S11308E0F894DEBF0FBECDBF2CE535E041E062E0F9
S11308F070E0CE010196ADDCCE010196ABDD2B9606
S11309000FB6F894DEBF0FBECDBFDF91CF9108952F
S113091093D0892B89F18AE290E00E94DF0D8091C7
S113092008029091090218161906FCF0809106023B
S1130930909107021816190694F083E090E09093C2
S113094007028093060283E094E00E94E40DC2DF74
S113095082E390E09093090280930802089501973E
S11309609093070280930602089582E390E09093A7
S11309700902809308020895809108029091090267
S113098018161906D4F48DE290E00E94DF0D8091D0
S1130990080290910902019790930902809308023A
S11309A023E030E03093070220930602892B79F488
S11309B08BE094E00C94E40D089583E090E0909330
S11309C00702809306028DE390E00C94DF0D0895F6
S11309D0AAE7B0E08C9180688C93EBE7F0E080812B
S11309E0877F8083ECE7F0E080818E7F8083808145
S11309F08D7F808380818B7F80838081877F8083CC
S1130A0080818F7E808380988C9180648C930895FC
S1130A1082E194E00E94E40D81E090E090935E0511
S1130A2080935D05089510925E0510925D058DE139
S1130A3094E00C94E40D0895EAE7F0E0808186FDEB
S1130A40FDCF8091780020917900EAE7F0E0908171
S1130A50906490838A3030F081E090E0211104C0EA
S1130A6080E0089581E090E0089587E690E043D423
S1130A70B0DBBFD1ADDF9DDE97D050D3FED232D3F1
S1130A8078940895F2DF8FE294E00E94E40DA9DDEA
S1130A9052D2FDCF36D380EC38D335C30895FACF84
S1130AA00895EF92FF920F931F93CF93DF93C82F74
S1130AB07B018A0126D383E028D38C2F26D31016FA
S1130AC0110644F4E7010E0D1F1D24D38993C017AA
S1130AD0D107D9F718D3DF91CF911F910F91FF90D0
S1130AE0EF900895EF92FF920F931F93CF93DF93AC
S1130AF0C82F7B018A0105D382E007D38C2F05D34D
S1130B001016110644F4E7010E0D1F1D8991FDD244
S1130B10C017D107D9F7F7D2DF91CF911F910F9169
S1130B20FF90EF900895CF93C82FEBD2C11103C06B
S1130B3081E8EBD20EC0C13019F482E8E6D209C0D4
S1130B40C23019F484E8E1D204C0C33011F487E858
S1130B50DCD2D9D2CF910895CF93D3D280EAD5D223
S1130B60D9D2C82FD0D28C2FCF9108951F93CF9371
S1130B70DF93182FD62FC42FC4D285E0C6D2812F7D
S1130B80C4D28D2FC2D28C2FC0D2BDD2DF91CF91CF
S1130B901F9108951F920F920FB60F9211240F9078
S1130BA00FBE0F901F901895C5D06FD078940895FC
S1130BB0CF93DF93C0E9D0E088818C7F8883E1E91B
S1130BC0F0E080818F7E808380818860808388814B
S1130BD01F928F9385E494E09F938F93DFD788814E
S1130BE0806C888388811F928F9382E594E09F9321
S1130BF08F93D4D78DB79EB708960FB6F8949EBF3F
S1130C000FBE8DBFDF91CF910895E1E9F0E08081BF
S1130C10836080830895DC0120E034E244EF50E0F7
S1130C20F7D520E038EE43E050E0D0D5822F932F63
S1130C30E8E9F0E091838083808191815F934F9311
S1130C403F932F939F938F9389E794E09F938F9380
S1130C50A5D78DB79EB708960FB6F8949EBF0FBE62
S1130C608DBF0895E1E7F0E0808180628083808118
S1130C7082608083808181608083109295001092CD
S1130C8094008CEA94E0A0C70895BFDF82E390E06B
S1130C90C2DF8EDFE7DF85EC94E096C70895789491
S1130CA01F920F920FB60F9211240BB60F922F932F
S1130CB03F934F935F936F937F938F939F93AF93E0
S1130CC0BF93EF93FF9324DEB1DDDED18091610504
S1130CD09091620501969093620580936105FF915E
S1130CE0EF91BF91AF919F918F917F916F915F91A0
S1130CF04F913F912F910F900BBE0F900FBE0F900D
S1130D001F90189578941F920F920FB60F9211248A
S1130D108F939F9380915F059091600501969093C6
S1130D20600580935F059F918F910F900FBE0F9088
S1130D301F90189587E690E0DED28FED94E0EEC226
S1130D400895CF93DF93EC01288139812330310555
S1130D5029F13CF42130310561F02230310599F05C
S1130D6042C024303105F9F02530310509F438C08A
S1130D703AC08B81882324F490E08F5F910901C0ED
S1130D8090E094D033C08B81882311F093DD2EC082
S1130D909BDD80E090E08AD082D028C08DEF94E083
S1130DA013D787D123C08B81882324F490E08F5FED
S1130DB0910901C090E09F938F9382E195E09F9306
S1130DC08F93ECD68B810F900F900F900F90882308
S1130DD024F490E08F5F910901C090E038D006C000
S1130DE08B817BD003C083E295E0EED6DF91CF9177
S1130DF00895A0E8B0E08C918E7F8C938C918260F2
S1130E008C93E1E8F0E08081886080838081806158
S1130E1080838C918F7E8C938C9180628C93269AA4
S1130E2080818E7F808380818260808380818B7FBC
S1130E30808380E49CE99093870080938600789473
S1130E4088EB9BE090938B0080938A0008958C3903
S1130E502FEF920714F48CE99FEFBC0185369105BE
S1130E6014F064E670E0882777FD8095982F84D38A
S1130E7020E030E048EC52E4E4D220E030E04AE7FD
S1130E8054E42ED49B01AC0160E070E88BE395E45C
S1130E906FD244D370938B0060938A00089588EBDB
S1130EA09BE090938B0080938A000895909364054F
S1130EB08093630508956093760570937705809316
S1130EC078059093790520937205309373054093C8
S1130ED074055093750522C10895992787FD90954F
S1130EE08C599F4FBC01992314F46F5F7F4F759504
S1130EF0679570E080E090E03DD320E030E048EC7E
S1130F0052E49FD2609376057093770580937805B9
S1130F109093790508952091700530917105AC0185
S1130F20421B530B50937B0540937A0590937105B4
S1130F30809370050895CF92DF92EF92FF920F9302
S1130F401F93CF93DF938091630590916405892B60
S1130F5021F410927D0510927C05EBD0EC01EED0CB
S1130F60009163051091640582E3809FB001819F25
S1130F70700D1124882777FD8095982FFDD220E0ED
S1130F8030E048EC52E45DD2C4D26B017C01809124
S1130F907A0590917B05BE0106D4C61AD70ACC9E69
S1130FA0C001CD9E900DDC9E900D112464E670E08E
S1130FB0FAD380917C0590917D05EB01C80FD91F70
S1130FC0D0937D05C0937C05B801882777FD809573
S1130FD0982FD2D2209176053091770540917805EB
S1130FE0509179057DD36B017C01BE01882777FD83
S1130FF08095982FC1D2209172053091730540914C
S11310007405509175056CD39B01AC01C701B60101
S1131010B0D16B017C0120E030E048EC52E45CD3B9
S1131020181654F020E030E048EC52ECC701B60149
S113103004D2882354F011C00F2EC12CD12CF8EC0B
S1131040EF2EF2E4FF2EF02D08C00F2EC12CD12C70
S1131050F8ECEF2EF2ECFF2EF02DC701B60159D2B9
S1131060CB01D0DBB3DB57DFDF91CF911F910F9121
S1131070FF90EF90DF90CF900895819A899808951A
S1131080899A0895899808958091650590916605D7
S11310900197181619062CF490936605809365053C
S11310A0089584E190E09093660580936505EACF06
S11310B0089585E595E088D584E190E090936605F0
S11310C080936505DDCF0895892B31F0E8E0F1E0E8
S11310D08081806880830895E8E0F1E080818F77E3
S11310E080830895E7E0F1E080818068808380E078
S11310F090E0EACF089587E884B9289881E58CBD0B
S113110008952F9808952F9A08958EBD0DB407FE63
S1131110FDCF089580E0F9DF8EB50895E1E2F1E0B6
S1131120808181608083E3E7F0E080818160808357
S11311300895809167059091680508951092680557
S11311401092670508951F920F920FB60F92112403
S11311508F939F9380916705909168050196909372
S11311606805809367059F918F910F900FBE0F9034
S11311701F9018958CE08093B8008FEF8093BB008C
S113118084E08093BC000895ECEBF0E0208120FD26
S1131190FDCF60936B05FC01208120936C0520FD3D
S11311A00CC0623050F0DC011196EDE6F5E081E010
S11311B09D9191938F5F8613FBCF10926A0588EF00
S11311C080930C0285EA8093BC0008951F920F92CD
S11311D00FB60F9211240BB60F922F933F938F9358
S11311E09F93AF93BF93EF93FF938091B90090E0E7
S11311F0FC013897E135F10508F055C0EE58FF4F72
S113120001C310926905E091690580916B05E817A7
S113121070F481E08E0F80936905F0E0E459FA4F91
S113122080818093BB0085E88093BC0043C080919B
S11312306A05816080936A0584E98093BC003AC0A2
S1131240E091690581E08E0F809369058091BB0070
S1131250F0E0E459FA4F80832091690530E08091F1
S11312606B0590E001972817390724F485EC8093E7
S1131270BC0020C085E88093BC001CC08091BB00EA
S1131280E0916905F0E0E459FA4F808380916A05A2
S1131290816080936A0584E98093BC000BC085EA71
S11312A08093BC0007C08091B90080930C0284E055
S11312B08093BC00FF91EF91BF91AF919F918F916B
S11312C03F912F910F900BBE0F900FBE0F901F9068
S11312D01895E0ECF0E080818823ECF78091C6005B
S11312E090E00895E0ECF0E0908195FFFDCF8093CD
S11312F0C60090E00895292F30E0E4ECF0E031835B
S11313002083808388E18093C1008EE08093C200B3
S113131069E679E082E799E0F7C30895CF93DF9314
S1131320EC018881882329F02196DCDF89918111E1
S1131330FCCFDF91CF910895CF93DF93EC019923F4
S11313402CF4D195C195D1098DE2CCDFCA30D105F9
S113135034F0CE016AE070E026D2CB01EDDFCE019D
S11313606AE070E020D2805DBDDFDF91CF91089507
S11313705058BB27AA270ED075C166D130F06BD167
S113138020F031F49F3F11F41EF45BC10EF4E0959C
S1131390E7FB51C1E92F77D180F3BA1762077307CE
S11313A08407950718F071F49EF58FC10EF4E0954B
S11313B00B2EBA2FA02D0B01B90190010C01CA010B
S11313C0A0011124FF27591B99F0593F50F4503EB6
S11313D068F11A16F040A22F232F342F4427585FA8
S11313E0F3CF469537952795A795F0405395C9F7C0
S11313F07EF41F16BA0B620B730B840BBAF0915078
S1131400A1F0FF0FBB1F661F771F881FC2F70EC016
S1131410BA0F621F731F841F48F4879577956795E9
S1131420B795F7959E3F08F0B3CF9395880F08F0D2
S11314309927EE0F979587950895D9D008F481E000
S113144008950CD00FC107D140F0FED030F021F444
S11314505F3F19F0F0C0511139C1F3C014D198F3B2
S11314609923C9F35523B1F3951B550BBB27AA2721
S113147062177307840738F09F5F5F4F220F331F93
S1131480441FAA1FA9F333D00E2E3AF0E0E830D05F
S113149091505040E695001CCAF729D0FE2F27D062
S11314A0660F771F881FBB1F261737074807AB0730
S11314B0B0E809F0BB0B802DBF01FF2793585F4FA5
S11314C02AF09E3F510568F0B6C000C15F3FECF3BF
S11314D0983EDCF3869577956795B795F7959F5F6A
S11314E0C9F7880F911D9695879597F90895E1E0BE
S11314F0660F771F881FBB1F621773078407BA071D
S113150020F0621B730B840BBA0BEE1F88F7E09577
S1131510089504D06894B111D9C00895BCD088F05E
S11315209F5790F0B92F9927B751A0F0D1F0660FCB
S1131530771F881F991F1AF0BA95C9F712C0B130E6
S113154081F0C3D0B1E00895C0C0672F782F8827F9
S1131550B85F39F0B93FCCF3869577956795B39525
S1131560D9F73EF490958095709561957F4F8F4F94
S11315709F4F0895E89409C097FB3EF49095809599
S1131580709561957F4F8F4F9F4F9923A9F0F92F45
S113159096E9BB279395F695879577956795B795C3
S11315A0F111F8CFFAF4BB0F11F460FF1BC06F5FA9
S11315B07F4F8F4F9F4F16C0882311F096E911C0BB
S11315C0772321F09EE8872F762F05C0662371F0DC
S11315D096E8862F70E060E02AF09A95660F771FF0
S11315E0881FDAF7880F9695879597F90895990FCC
S11315F00008550FAA0BE0E8FEEF16161706E807D9
S1131600F907C0F012161306E407F50798F0621BF9
S1131610730B840B950B39F40A2661F0232B242BCE
S1131620252B21F408950A2609F4A140A6958FEFED
S1131630811D811D089597F99F6780E870E060E03F
S113164008959FEF80EC089500240A941616170657
S113165018060906089500240A941216130614069F
S113166005060895092E0394000C11F4882352F002
S1131670BB0F40F4BF2B11F460FF04C06F5F7F4FBA
S11316808F4F9F4F089557FD9058440F551F59F0A1
S11316905F3F71F04795880F97FB991F61F09F3F5B
S11316A079F087950895121613061406551FF2CF84
S11316B04695F1DF08C0161617061806991FF1CFD4
S11316C086957105610508940895E894BB276627FB
S11316D07727CB0197F908958ADF08F48FEF0895EF
S11316E00BD0C0CFB1DF28F0B6DF18F0952309F096
S11316F0A2CFA7CF1124EACFC6DFA0F3959FD1F3E1
S1131700950F50E0551F629FF001729FBB27F00DAB
S1131710B11D639FAA27F00DB11DAA1F649F662700
S1131720B00DA11D661F829F2227B00DA11D621F4F
S1131730739FB00DA11D621F839FA00D611D221F09
S1131740749F3327A00D611D231F849F600D211DED
S1131750822F762F6A2F11249F5750408AF0E1F090
S113176088234AF0EE0FFF1FBB1F661F771F881FD9
S113177091505040A9F79E3F510570F05CCFA6CF21
S11317805F3FECF3983EDCF3869577956795B795C4
S1131790F795E7959F5FC1F7FE2B880F911D9695EE
S11317A0879597F9089597FB072E16F4009406D0B1
S11317B077FD08D033D007FC05D03EF49095819591
S11317C09F4F0895709561957F4F0895052E97FB5F
S11317D016F400940FD057FD05D034D007FC02D086
S11317E046F408C050954095309521953F4F4F4F92
S11317F05F4F089590958095709561957F4F8F4FB9
S11318009F4F0895EE0FFF1F0590F491E02D19945A
S1131810B7FF3AC039D0821B930B0895AA1BBB1B98
S113182051E107C0AA1FBB1FA617B70710F0A61BDC
S1131830B70B881F991F5A95A9F780959095BC01FD
S1131840CD010895A1E21A2EAA1BBB1BFD010DC0F8
S1131850AA1FBB1FEE1FFF1FA217B307E407F5075C
S113186020F0A21BB30BE40BF50B661F771F881F38
S1131870991F1A9469F760957095809590959B01CE
S1131880AC01BD01CF01089509D0A59F900DB49F6F
S1131890900DA49F800D911D11240895A29FB00165
S11318A0B39FC001A39F700D811D1124911DB29F90
S11318B0700D811D1124911D0895CF93DF93823003
S11318C0910510F482E090E0E0918005F0918105AB
S11318D020E030E0A0E0B0E0309739F14081518160
S11318E048175907B8F04817590771F48281938152
S11318F0109729F013969C938E9312972CC0909373
S113190081058093800527C02115310531F04217E8
S1131910530718F0A901DB0101C0EF019A01BD01D1
S1131920DF010280F381E02DD7CF21153105F9F0D5
S1131930281B390B2430310580F48A819B81611581
S1131940710521F0FB019383828304C09093810588
S113195080938005FE01329644C0FE01E20FF31F1E
S11319608193919322503109398328833AC020917D
S11319707E0530917F05232B41F4209102023091A2
S1131980030230937F0520937E052091000230915D
S113199001022115310541F42DB73EB740910402EF
S11319A050910502241B350BE0917E05F0917F05D3
S11319B0E217F307A0F42E1B3F0B2817390778F022
S11319C0AC014E5F5F4F2417350748F04E0F5F1F81
S11319D050937F0540937E058193919302C0E0E08C
S11319E0F0E0CF01DF91CF910895CF93DF9300977B
S11319F009F487C0FC01329713821282C0918005DA
S1131A00D0918105209781F420813181280F391FDD
S1131A1080917E0590917F058217930779F5F09365
S1131A207F05E0937E056DC0DE0120E030E0AE1757
S1131A30BF0750F412964D915C9113979D01411587
S1131A40510509F1DA01F3CFB383A28340815181B7
S1131A50840F951F8A179B0771F48D919C911197A0
S1131A60840F951F02969183808312968D919C9189
S1131A701397938382832115310529F4F09381050B
S1131A80E09380053EC0D9011396FC93EE93129720
S1131A904D915D91A40FB51FEA17FB0779F480817E
S1131AA09181840F951F0296D90111969C938E9370
S1131AB08281938113969C938E931297E0E0F0E0D9
S1131AC08A819B81009719F0FE01EC01F9CFCE01C8
S1131AD0029628813981820F931F20917E053091CF
S1131AE07F052817390769F4309729F41092810586
S1131AF01092800502C013821282D0937F05C09396
S1131B007E05DF91CF9108950F931F93CF93DF93B9
S1131B10EC018B01009731F46115710519F480E033
S1131B2090E037C06EE070E081E090E068D2FC01A4
S1131B300097A9F380E883830115110571F01387D9
S1131B40028781E883838091820590918305892BA4
S1131B5021F4F0938305E09382052097C9F0D1879F
S1131B60C0878381826083838091840590918505F9
S1131B70892B71F4F0938505E093840580918605A3
S1131B8090918705892B21F4F0938705E0938605CE
S1131B90CF01DF91CF911F910F910895CF93DF93E0
S1131BA0CDB7DEB7FE01369661917191AF01809198
S1131BB084059091850535D0DF91CF91089560918A
S1131BC084057091850552C20F931F93CF93DF93C1
S1131BD0E0918405F0918505238121FF1BC0EC0170
S1131BE000E010E089916091840570918505DB0126
S1131BF01896ED91FC911997882331F01995892B4A
S1131C0089F30FEF1FEFEECF8AE01995892B11F4BA
S1131C10C80102C08FEF9FEFDF91CF911F910F9109
S1131C2008952F923F924F925F926F927F928F927C
S1131C309F92AF92BF92CF92DF92EF92FF920F9357
S1131C401F93CF93DF93CDB7DEB72C970FB6F894DD
S1131C50DEBF0FBECDBF7C016B018A01FC01178280
S1131C601682838181FFB0C1CE0101964C01F70138
S1131C709381F60193FD859193FF81916F018823F0
S1131C8009F49EC1853239F493FD859193FF8191C6
S1131C906F01853221F4B70190E0E8D1E8CF512CEF
S1131CA0312C20E02032A0F48B3269F030F4803201
S1131CB059F0833269F420612CC08D3239F08033BD
S1131CC039F4216026C02260246023C0286021C02A
S1131CD027FD27C030ED380F3A3078F426FF06C0D0
S1131CE0FAE05F9E300D1124532E13C08AE0389E13
S1131CF0300D1124332E20620CC08E3221F426FDC7
S1131D005FC1206406C08C3611F4206802C0883696
S1131D1041F4F60193FD859193FF81916F01811147
S1131D20C1CF982F9F7D9554933028F40C5F1F4F9B
S1131D30FFE3F9830DC0833631F0833771F08335C7
S1131D4009F057C021C0F801808189830E5F1F4FBD
S1131D5044244394512C540114C03801F2E06F0E12
S1131D60711CF801A080B18026FF03C0652D70E0CE
S1131D7002C06FEF7FEFC5012C876DD12C01830169
S1131D802C852F77222E16C03801F2E06F0E711CBD
S1131D90F801A080B18026FF03C0652D70E002C069
S1131DA06FEF7FEFC5012C8744D12C012C8520686F
S1131DB0222E830123FC19C0832D90E04816590676
S1131DC0A0F4B70180E290E051D13A94F5CFF50147
S1131DD027FC859127FE81915F01B70190E046D1F0
S1131DE031103A94F1E04F1A51084114510479F733
S1131DF0DEC0843611F0893631F5F80127FF07C0BB
S1131E0060817181828193810C5F1F4F08C0608162
S1131E107181882777FD8095982F0E5F1F4F2F764D
S1131E20B22E97FF09C090958095709561957F4F6C
S1131E308F4F9F4F2068B22E2AE030E0A40148D192
S1131E40A82EA81843C0853729F42F7EB22E2AE085
S1131E5030E025C0F22FF97FBF2E8F36C1F018F481
S1131E60883579F0ADC0803719F0883721F0A8C0E3
S1131E702F2F2061B22EB4FE0DC08B2D8460B82E9E
S1131E8009C024FF0AC09F2F9660B92E06C028E01F
S1131E9030E005C020E130E002C020E132E0F8018A
S1131EA0B7FE07C060817181828193810C5F1F4FEF
S1131EB006C06081718180E090E00E5F1F4FA40135
S1131EC007D1A82EA818FB2DFF77BF2EB6FE0BC096
S1131ED02B2D2E7FA51450F4B4FE0AC0B2FC08C00A
S1131EE02B2D2E7E05C07A2C2B2D03C07A2C01C0FD
S1131EF0752C24FF0DC0FE01EA0DF11D8081803395
S1131F0011F4297E09C022FF06C07394739404C09F
S1131F10822F867809F0739423FD12C020FF06C037
S1131F205A2C731418F4530C5718732C731460F44C
S1131F30B70180E290E02C8799D073942C85F6CF7A
S1131F40731410F4371801C0312C24FF11C0B701E9
S1131F5080E390E02C878AD02C8522FF16C021FFD5
S1131F6003C088E590E002C088E790E0B7010CC0A8
S1131F70822F867851F021FD02C080E201C08BE2FD
S1131F8027FD8DE2B70190E071D0A51430F4B701BC
S1131F9080E390E06BD05A94F8CFAA94F401EA0D50
S1131FA0F11D8081B70190E061D0A110F6CF3320FC
S1131FB009F45DCEB70180E290E058D03A94F7CFAF
S1131FC0F7018681978102C08FEF9FEF2C960FB6A1
S1131FD0F894DEBF0FBECDBFDF91CF911F910F915B
S1131FE0FF90EF90DF90CF90BF90AF909F908F9035
S1131FF07F906F905F904F903F902F9008950F9334
S11320001F93CF93DF93869F8001879F100D969F28
S1132010100D1124C80151DCEC01009721F0A80136
S113202060E070E011D0CE01DF91CF911F910F914C
S11320300895FC010590615070400110D8F7809517
S113204090958E0F9F1F0895DC0101C06D93415040
S11320505040E0F70895FC01615070400190011078
S1132060D8F7809590958E0F9F1F08950F931F9317
S1132070CF93DF93182F092FEB018B8181FD03C0D0
S11320808FEF9FEF20C082FF10C04E815F812C81B3
S11320903D81421753077CF4E881F9819F012F5F4A
S11320A03F4F39832883108306C0E885F985812F43
S11320B01995892B29F72E813F812F5F3F4F3F834D
S11320C02E83812F902FDF91CF911F910F9108952F
S11320D0FA01AA27283051F1203181F1E8946F9355
S11320E06E7F6E5F7F4F8F4F9F4FAF4FB1E03ED0FB
S11320F0B4E03CD0670F781F891F9A1FA11D680F99
S1132100791F8A1F911DA11D6A0F711D811D911DCB
S1132110A11D20D009F468943F912AE0269F112440
S11321203019305D3193DEF6CF010895462F4770A4
S1132130405D4193B3E00FD0C9F7F6CF462F4F70FF
S1132140405D4A3318F0495D31FD4052419302D05D
S1132150A9F7EACFB4E0A695979587957795679503
S1132160BA95C9F700976105710508959B01AC0103
S11321700A2E06945795479537952795BA95C9F72A
S1132180620F731F841F951FA01D0895F894FFCF3D
S1132190000088052000030032003C00F84D435045
S11321A032353135206973204E4F5420696E2063D7
S11321B06F6E66696775726174696F6E206D6F64A6
S11321C06520616674657220726573657421204DA3
S11321D043505F43414E53544154203D25640A000B
S11321E063616E5F696E697420636F6D706C657492
S11321F0650A0043616E2D4D6F64653A20256420A5
S11322003C2D2073686F756C642062652037210A49
S113221000556E61626C6520746F206D616B652082
S113222061206D657373616765206F6620746865EE
S11322302064657369726564206C656E6774680AEE
S113224000204973206C6172676572207468616E46
S11322502000796F752063616E206F6E6C79206643
S1132260696C6C206F6E65206275666665722061AC
S11322707420612074696D65210A00696E76616C51
S11322806964207472616E736D69745F62756666E9
S113229065720A0043414E2D4D6573736167652075
S11322A061626F727465642064756520746F207454
S11322B0696D656F7574207768656E2061747465E7
S11322C06D7074696E6720746F2066696E64207423
S11322D072616E736D69742D6275666665720069EC
S11322E06E76616C696420726563696576655F62A8
S11322F07566666572210A004572726F722C206ED3
S11323006F20726563656976652D627566666572B0
S11323102069732066756C6C0A0043616E5F4D65BD
S113232073736167653A200A0949443A20000A092F
S11323306C656E6774683A20000A09646174613AD6
S113234020002C005265636569766564206D6573B1
S11323507361676520627920696E74657272757045
S1132360740A005072696E74696E670A00496E657A
S1132370727275707420646F6E650A007472616E97
S1132380736D69745F6275666665723A00706F6931
S11323906E74000A42524F4B454E000A5245414466
S11323A0590049522D656E61626C65640049522D75
S11323B04265616D2064697361626C6564210048E3
S11323C0656C6C6F20576F726C642049606D204E91
S11323D06F64653200544343523341202564200A1C
S11323E0200054696D657220696E7465727275702F
S11323F074206D6F6465207365742C5443435233A9
S113240041203D202564200A0054696D65722076C0
S1132410616C756520736574204F43523341203DD0
S11324202025642C20286D696C6C697365636F6E5C
S11324306473203D20256C7520290A0074696D653C
S1132440722D696E746572727570747320656E6135
S1132450626C65640054696D65722D696E74657291
S1132460727570747320656E61626C6564210055C9
S1132470534152542D696E74657272757074732071
S11324804E4F5420656E61626C65640A0072696720
S1132490687420427574746F6E2070757368656417
S11324A021005269676874536C696465723A202527
S11324B0640A00556E6B6E6F776E206D6573736181
S11324C067652D4944004A6F79737469636B2D50B5
S11324D06F736974696F6E3A200A09783A20000AAA
S10D24E009793A2000507573680072
S9030000FC
