:100000000C9426010C9443010C9443010C9443017D
:100010000C9443010C9443010C9443010C94430150
:100020000C9443010C9443010C9443010C94430140
:100030000C9443010C9443010C9443010C94430130
:100040000C9443010C9443010C9443010C94430120
:100050000C9443010C9443010C9443010C94430110
:100060000C9443010C9443010C9443010C94430100
:10007000000000000000005F0000000700070014FF
:100080007F147F14242A7F2A1223130864623649BE
:100090005522500005030000001C224100004122AF
:1000A0001C00082A1C2A0808083E080800503000D6
:1000B000000808080808006060000020100804021A
:1000C0003E5149453E00427F400042615149462130
:1000D00041454B311814127F1027454545393C4A9C
:1000E00049493001710905033649494936064949EC
:1000F000291E003636000000563600000008142283
:100100004114141414144122140800020151090668
:10011000324979413E7E1111117E7F494949363E6F
:10012000414141227F4141221C7F494949417F0988
:100130000901013E414151327F0808087F00417F9B
:1001400041002040413F017F081422417F40404050
:10015000407F0204027F7F0408107F3E4141413E00
:100160007F090909063E4151215E7F09192946464A
:100170004949493101017F01013F4040403F1F2073
:1001800040201F7F2018207F631408146303047825
:100190000403615149454300007F414102040810B6
:1001A0002041417F000004020102044040404040E1
:1001B000000102040020545454787F4844443838E5
:1001C00044444420384444487F3854545418087EEA
:1001D000090102081454543C7F0804047800447D4B
:1001E00040002040443D00007F10284400417F40F3
:1001F000007C041804787C080404783844444438AB
:100200007C14141408081414187C7C08040408488E
:1002100054545420043F4440203C4040207C1C2047
:1002200040201C3C4030403C44281028440C505096
:10023000503C4464544C44000836410000007F00A8
:1002400000004136080002010302010011241FBE14
:10025000CFEFD4E0DEBFCDBF13E0A0E0B1E0EEE52C
:10026000F2E202C005900D92A034B107D9F723E065
:10027000A0E4B3E001C01D92AB36B207E1F70E94E3
:10028000F6050C942D110C94000010925A03109254
:100290005903109254031092530385E08093001485
:1002A00082E58A95F1F7E0E0F4E1808190E09093B7
:1002B00054038093530384E0808382E58A95F1F7A9
:1002C0008091001490E090935A038093590308950D
:1002D000672B29F0209153033091540304C02091DF
:1002E000590330915A03AC01421B530B9A0144E667
:1002F000429FC001439F900D11246FE770E00E9460
:10030000A60CCB016C395FEF750714F48CE99FEFF5
:100310008536910514F084E690E008950F931F93BD
:10032000CF93DF9385E08093001482E58A95F1F7FF
:10033000C0E0D4E1888161E070E090E00E94680153
:100340008C0184E0888382E58A95F1F7809100141E
:1003500060E070E090E00E946801A801BC01CB0160
:10036000BA01DF91CF911F910F91089586E080939C
:10037000001482E58A95F1F72091001430E02058AE
:10038000310944E6429FC001439F900D11246FE75D
:1003900070E00E94A60CCB01089587E080930014C2
:1003A00082E58A95F1F72091001430E02058310958
:1003B00044E6429FC001439F900D11246FE770E017
:1003C0000E94A60CCB0108950E948E01AB019C01F6
:1003D000DB01772324F4AA27BB27A61BB70BFC015C
:1003E000332324F4EE27FF27E81BF90BEA17FB075A
:1003F00044F44B3051056CF4463F5F4F64F483E0A6
:1004000008952B3031054CF4263F3F4F44F483E0F0
:10041000089582E0089584E0089582E0089584E0DC
:10042000089584E088BB17BA089586B386958695AB
:1004300091E08927817090E0089586B3817090E003
:10044000089586B38695817090E00895482F60EEF8
:100450008FE00E947B060895CF93DF931F92CDB764
:10046000DEB70E94550C0E940D0641E050E0BE012F
:100470006F5F7F4F8EE00E9410068981807E8038FA
:1004800021F08DE191E00E94760C80E00E9426022E
:100490000F90DF91CF910895CF92DF92EF92FF926C
:1004A0000F931F93CF93DF93CDB7DEB72B970FB684
:1004B000F894DEBF0FBECDBF8C017B01D22EC32EC0
:1004C000493070F08CE291E00E94760C88E090E078
:1004D00048E0ED2DFC2DDE01149620E030E006C052
:1004E000842F90E018161906A4F307C051915D936C
:1004F0002F5F3F4F28173907CCF3FA82E9824B83ED
:100500008BE0FE013196D80101900D928A95E1F7BA
:10051000C8012B960FB6F894DEBF0FBECDBFDF919A
:10052000CF911F910F91FF90EF90DF90CF900895A2
:10053000DF92EF92FF920F931F93CF93DF9300D040
:100540001F92CDB7DEB78C01F62E662399F081E0BD
:100550006817D1F0E2E06E1709F1F3E06F1305C000
:100560008CE391E00E94760C50C08CE491E00E94F4
:10057000760C4BC00F2EF6E3DF2EF02D0F2EF5E399
:10058000EF2EF02D81E313C00F2EF6E4DF2EF02DB9
:100590000F2EF5E4EF2EF02D81E409C00F2EF6E5C5
:1005A000DF2EF02D0F2EF5E5EF2EF02D81E5F80171
:1005B00020813181A90156954795569547955695C5
:1005C000479549832295220F207E2A8342E050E0FE
:1005D000BE016F5F7F4F0E943606F80192819B83B8
:1005E00041E050E0BE016D5F7F4F8E2D0E943606C8
:1005F0004B81442339F050E0B8016D5F7F4F8D2D62
:100600000E9436068F2D0E945C060F900F900F906F
:10061000DF91CF911F910F91FF90EF90DF900895A0
:10062000CF93DF931F92CDB7DEB741E050E0BE011C
:100630006F5F7F4F80E30E941006898183FF18C09F
:1006400041E050E0BE016F5F7F4F80E40E941006E2
:10065000898183FF0FC041E050E0BE016F5F7F4F93
:1006600080E50E941006898183FD06C082E005C0F6
:1006700080E003C081E001C08FEF0F90DF91CF9148
:1006800008950F931F93CF93DF938C010E94100363
:100690008F3FD9F015C00E9410032197209771F465
:1006A0008BE591E00E94760C2FEF8FEF9EE02150BA
:1006B00080409040E1F700C000000CC08F3F59F32C
:1006C000682FC8010E94980205C00E941003CEEF57
:1006D000DFE7F4CFDF91CF911F910F910895FC01D7
:1006E0008181829586958770208190E038E0239FF4
:1006F000800D911D11240895CF92DF92EF92FF9209
:100700000F931F93CF93DF93CDB7DEB72B970FB621
:10071000F894DEBF0FBECDBF8C01F62E40E061E045
:100720008CE20E947B0681E0F81681F082E0F816E8
:10073000B9F089E691E00E94760C20E030E04FEFBE
:100740006FEF7FEFC8010E944C0237C00F2EF6E614
:10075000DF2EF02D0F2EF5E6CF2EF02D81E609C00D
:100760000F2EF6E7DF2EF02D0F2EF5E7CF2EF02D12
:1007700081E742E050E0BE016F5F7F4F0E941006AC
:10078000CE0101960E946F037C0141E050E0BE0162
:100790006D5F7F4F8C2D0E9410064B8150E0BE0193
:1007A0006C5F7F4F8D2D0E9410069E012C5F3F4F86
:1007B0004B81B701C8010E944C02C8012B960FB6AD
:1007C000F894DEBF0FBECDBFDF91CF911F910F9187
:1007D000FF90EF90DF90CF900895CF93DF931F921B
:1007E000CDB7DEB741E050E0BE016F5F7F4F8CE2D6
:1007F0000E941006898180FD04C081FF04C082E050
:1008000003C081E001C08FEF0F90DF91CF91089579
:10081000CF93DF93CDB7DEB72B970FB6F894DEBF3B
:100820000FBECDBF0E94ED038F3F49F0682FCE0170
:1008300001960E947C03CE0101960E943E0C2B96ED
:100840000FB6F894DEBF0FBECDBFDF91CF910895F4
:10085000CF92DF92EF92FF92CF93DF93CDB7DEB7C7
:100860002D970FB6F894DEBF0FBECDBF0E948E014C
:100870006B017C0180915B0390915C038C159D055D
:1008800039F480915D0390915E038E159F0581F090
:10089000CC86ED869E01245F3F4F42E061E070E030
:1008A000CE0101960E944C02CE0101960E944103A6
:1008B000EBE5F3E0D182C082F382E2822D960FB69F
:1008C000F894DEBF0FBECDBFDF91CF91FF90EF90C8
:1008D000DF90CF900895CF93DF93CDB7DEB72C97FD
:1008E0000FB6F894DEBF0FBECDBF0E942102009765
:1008F000D1F02091060130910701232BD1F08C8794
:100900009E01245F3F4F41E063E070E0CE0101961D
:100910000E944C02CE0101960E94410310920701F1
:100920001092060106C081E090E090930701809349
:1009300006012C960FB6F894DEBF0FBECDBFDF9137
:10094000CF9108950F931F93CF93DF93CDB7DEB769
:100950002C970FB6F894DEBF0FBECDBF0E94CD011D
:100960008C0180915F03909160039801281B390BE3
:10097000C901992324F488279927821B930B039795
:100980007CF00C879E01245F3F4F41E064E070E003
:10099000CE0101960E944C02CE0101960E944103B5
:1009A0001093600300935F032C960FB6F894DEBF9C
:1009B0000FBECDBFDF91CF911F910F910895CF93BF
:1009C000DF93CDB7DEB72B970FB6F894DEBF0FBE1F
:1009D000CDBF81E090E090934C0380934B03109245
:1009E00049031092480310924703109246038091E6
:1009F0004A0391E0980F19F090934A0303C08E5F69
:100A000080934A030E9495062AE433E041E062E0C5
:100A100070E0CE0101960E944C02CE0101960E9428
:100A200041032B960FB6F894DEBF0FBECDBFDF910A
:100A3000CF910895CF93DF93CDB7DEB72C970FB644
:100A4000F894DEBF0FBECDBF10924C0310924B0343
:100A500019829E012F5F3F4F41E062E070E0CE01BE
:100A600002960E944C02CE0102960E944103209100
:100A7000400330914103809146039091470328172A
:100A800039079CF4E2E4F3E040815181509345033F
:100A90004093440331832083909341038093400328
:100AA00061E070E00E94150728C020914203309158
:100AB0004303281739076CF430934503209344030C
:100AC000909343038093420362E070E00E94150715
:100AD00014C02091440330914503281739074CF482
:100AE000909345038093440363E070E00E941507F0
:100AF00004C06FEF7FEF0E9415072C960FB6F89495
:100B0000DEBF0FBECDBFDF91CF91089590914A0314
:100B1000891311C0809148039091490301969093E5
:100B2000490380934803039734F00E941A050E94FA
:100B30001D02892BE1F308950E94DF041BC0609120
:100B400048037091490380914603909147030E94A6
:100B5000E6060E9408040E9428040E94A2040E9443
:100B60006B040E941D02892B29F010924C031092F5
:100B70004B03089580914B0390914C03892BF9F618
:100B800008958091460390914703019690934703FF
:100B9000809346030895880F991FFC01E05CFC4F89
:100BA00080819181089585B7806885BF80B7806214
:100BB00080BF08958FE190E00E94670C0E94D305EA
:100BC0000E94450187B38C7F87BB0E94450B0E9422
:100BD000B60B6CE67CE08FEE9BE00E94CE0C0E9490
:100BE000B60B0E9411020E942C0208950E94DA05A1
:100BF00089E991E00E94760C0E94F6080E94110B90
:100C000080EB91E00E94760CFBCF0E945A0C80ECA6
:100C10000E945E0C0E945C0C08950E9405060895D7
:100C2000EF92FF920F931F93CF93DF93C82F7B0117
:100C30008A010E945A0C83E00E945E0C8C2F0E9455
:100C40005E0C101611064CF4E7010E0D1F1D0E94DC
:100C5000620C8993C017D107D1F70E945C0CDF9119
:100C6000CF911F910F91FF90EF900895EF92FF9217
:100C70000F931F93CF93DF93C82F7B018A010E94AC
:100C80005A0C82E00E945E0C8C2F0E945E0C1016A3
:100C900011064CF4E7010E0D1F1D89910E945E0C98
:100CA000C017D107D1F70E945C0CDF91CF911F9143
:100CB0000F91FF90EF900895CF93C82F0E945A0C88
:100CC000C11104C081E80E945E0C11C0C13021F442
:100CD00082E80E945E0C0BC0C23021F484E80E94BE
:100CE0005E0C05C0C33019F487E80E945E0C0E94B8
:100CF0005C0CCF9108951F93CF93DF93182FD62FBD
:100D0000C42F0E945A0C85E00E945E0C812F0E9425
:100D10005E0C8D2F0E945E0C8C2F0E945E0C0E9438
:100D20005C0CDF91CF911F9108950E94B60B65E096
:100D300081E00E94AC0B83EB91E09F938F930E9424
:100D4000190D69E183E00E94AC0B83E390E00E94FF
:100D50002D0D2FEF8FEF9EE0215080409040E1F766
:100D600000C0000069E184E00E94AC0B82E390E0E7
:100D70000E942D0D2FEF8FEF9EE02150804090407C
:100D8000E1F700C0000069E185E00E94AC0B81E35F
:100D900090E00E942D0D2FEF8FEF9EE021508040BC
:100DA0009040E1F700C000000E94B60B0F900F903A
:100DB000089561E187E00E94AC0B8DEB91E09F9379
:100DC0008F930E94190D0F900F9008950F931F930A
:100DD000CF93DF93182F092FC62FD72F65E081E01F
:100DE0000E94AC0B0F931F9386EF91E09F938F931C
:100DF0000E94190D65E082E00E94AC0BDF93CF9357
:100E000081ED91E09F938F930E94190D0E94D90666
:100E10008DB79EB708960FB6F8949EBF0FBE8DBFD4
:100E2000DF91CF911F910F9108950F931F93CF934F
:100E3000DF93182F092FEB010E94B60B63E180E0CE
:100E40000E94AC0B2EED31E03F932F930E94190DC1
:100E500065E082E00E94AC0B0F931F9381EF91E05D
:100E60009F938F930E94190D65E084E00E94AC0B64
:100E70000F900F900F900F900F900F90C130D105F1
:100E8000A9F480E092E09F938F930E94190D65E092
:100E900085E00E94AC0B8CE092E09F938F930E94C0
:100EA000190D0F900F900F900F9046C0C230D105D2
:100EB000A9F48DE192E09F938F930E94190D65E054
:100EC00085E00E94AC0B80E392E09F938F930E9499
:100ED000190D0F900F900F900F902EC0C330D105B9
:100EE000A9F487E392E09F938F930E94190D65E028
:100EF00085E00E94AC0B87E492E09F938F930E9461
:100F0000190D0F900F900F900F9016C02196A1F41D
:100F100080E592E09F938F930E94190D65E085E034
:100F20000E94AC0B8AE592E09F938F930E94190D6B
:100F30000F900F900F900F900E94D906DF91CF91E4
:100F40001F910F9108950E94B60B65E080E00E940A
:100F5000AC0B85E692E09F938F930E94190D68E594
:100F600080E00E94AC0B8EE692E09F938F930E94EC
:100F7000190D65E082E00E94AC0B86E792E09F933A
:100F80008F930E94190D69E183E00E94AC0B8FE7FB
:100F900092E09F938F930E94190D69E184E00E9473
:100FA000AC0B85E892E09F938F930E94190D69E145
:100FB00085E00E94AC0B8AE892E09F938F930E9499
:100FC000190D0E94D9068DB79EB70C960FB6F894EE
:100FD0009EBF0FBE8DBF08950E94B60B65E080E0F6
:100FE0000E94AC0B81E992E09F938F930E94190DB0
:100FF00069E182E00E94AC0B80E090E00E94CB05AA
:101000009F938F9389E992E09F938F930E94190D8C
:1010100069E183E00E94AC0B81E090E00E94CB0587
:101020009F938F938FE992E09F938F930E94190D66
:1010300069E184E00E94AC0B82E090E00E94CB0565
:101040009F938F9385EA92E09F938F930E94190D4F
:101050000E94D9068DB79EB70E960FB6F8949EBF24
:101060000FBE8DBF08950E94B60B65E080E00E9420
:10107000AC0B8BEA92E09F938F930E94190D65E071
:1010800082E00E94AC0B84EB92E09F938F930E94CE
:10109000190D65E085E00E94AC0B82EC92E09F9315
:1010A0008F930E94190D0E94D9060F900F900F90F8
:1010B0000F900F900F9008950F931F93CF93DF938E
:1010C000992787FD90958C599F4F8C01992314F493
:1010D0000F5F1F4F15950795C8010E94850C8EEA7A
:1010E00091E00E94760C6EE083E00E94AC0BC0E0C1
:1010F000D0E0C017D10724F48FEF0E94C40B03C0C7
:1011000080E00E94C40B2196C436D10591F7DF918F
:10111000CF911F910F9108950F931F93CF93DF935A
:101120000E94B60BC0E9D1E009ED12E01F930F93C6
:101130000E94190D80E090EF0197F1F721970F9031
:101140000F90209799F7DF91CF911F910F910895FC
:10115000BF92CF92DF92EF92FF920F931F93CF93A4
:10116000DF9360E00E94AC0B08E010E0D12CE12C92
:10117000FF24F3946894BB24B3F8C12C2AC08F2DAC
:101180000C2E01C0880F0A94EAF70E94C40B8CEC65
:1011900094E00197F1F700C000002196C830D10516
:1011A00071F7CB2DDC2D8F2D0C2E01C0880F0A94EA
:1011B000EAF70E94C40B8CEC94E00197F1F700C0B1
:1011C00000002197209779F70150110901151105A9
:1011D00019F0CD2DDE2DD3CFDF91CF911F910F913F
:1011E000FF90EF90DF90CF90BF900895EF92FF9225
:1011F0000F931F93CF93DF930E94B60B87E090E08D
:101200000E94A80880E090E00E94A80886E090E094
:101210000E94A80881E090E00E94A80885E090E084
:101220000E94A80882E090E00E94A80861E283E0A2
:101230000E94AC0B0AE110E00F2EF2E1EF2EF02D30
:10124000F12C2AC08AE20E94C70B21972097D1F780
:1012500080E20E94C70B87E40E94C70B82E50E94D0
:10126000C70B8FE40E94C70B85E50E94C70B80E582
:101270000E94C70B80E20E94C70B81E30E94C70B4C
:1012800080E20E94C70B80E090EF0197F1F70150D8
:1012900011090115110519F0CE2DDF2DD3CF61E114
:1012A00084E00E94AC0B06E110E00F2EFDE0EF2E73
:1012B000F02DF12C30C08AE20E94C70B21972097B5
:1012C000D1F780E20E94C70B84E50E94C70B84E43B
:1012D0000E94C70B8BE40E94C70B84E30E94C70BDC
:1012E00081E30E94C70B85E30E94C70B85E30E9440
:1012F000C70B80E20E94C70B8AE20E94C70B8AE2FA
:101300000E94C70B80E090EF0197F1F7015011099F
:101310000115110519F0CE2DDF2DCDCF8FEF9FEFE9
:101320002EE0815090402040E1F700C00000DF91A6
:10133000CF911F910F91FF90EF900895805290E010
:10134000FC01EE0FFF1FEE0FFF1FE80FF91FE60F66
:10135000F11DE059FF4F8591949108950E94150267
:10136000892BE1F70E94EC070E941D02892BE1F313
:1013700008950F931F93CF93DF93CDB7DEB72B97CD
:101380000FB6F894DEBF0FBECDBF0E94330803EE48
:1013900012E03CC00E94B60180934D030E945C089D
:1013A0000E942102892B81F181E00E943B0C66E4BE
:1013B00085E00E94AC0B1F930F930E94190D2DE442
:1013C00033E041E065E070E0CE0101960E944C02FE
:1013D000CE0101960E9441032FEF8FE791E021504B
:1013E00080409040E1F700C000C080E00E943B0CCC
:1013F00066E485E00E94AC0B1F930F930E94190DC9
:101400000F900F900F900F900E9428040E941D02D1
:10141000892B09F4BFCF2B960FB6F894DEBF0FBE11
:10142000CDBFDF91CF911F910F9108950E941502BA
:10143000892BE1F70E94A3070E941D02892BE1F38B
:1014400008950E948C08FFCF0F931F93CF93DF93D3
:10145000EC018B010E94E401823019F0833069F0C5
:1014600019C0909108019430A9F41C161D0614F4BB
:10147000219710C0E80121970DC090910801943088
:1014800049F401501109C017D10714F4219602C084
:10149000C0E0D0E080930801CE01DF91CF911F9191
:1014A0000F9108958F929F92AF92BF92CF92DF9249
:1014B000EF92FF920F931F93CF93DF938C016B01F9
:1014C0004A01C22FD32F68E280E00E94AC0BDF9369
:1014D000CF932DEE32E03F932F930E94190D0F9082
:1014E0000F900F900F901C141D040CF042C054017B
:1014F000AA0CBB1CA00EB11EC0E0D0E00F2EF0EF76
:10150000EF2EF2E0FF2EF02D64E18C2F8F5F0E9412
:10151000AC0BC815D905C1F481E00E943B0C80E2F8
:1015200090E00E942D0DF50181818F9380818F9332
:101530000E94190D80E290E00E942D0D80E00E9433
:101540003B0C0F900F900FC0F80181818F93808129
:101550008F930E94190DFF92EF920E94190D0F9028
:101560000F900F900F9021960E5F1F4FCC15DD0549
:1015700059F6DF91CF911F910F91FF90EF90DF907F
:10158000CF90BF90AF909F908F900895CF92DF92B1
:10159000EF92FF920F931F93CF93DF938C017B0108
:1015A000EA010E94B60B970140E050E0BE01C8017D
:1015B0000E94520A0E941502892BE1F7C12CD12CFE
:1015C000BE018C2D9D2D0E94240AC82ED92E970174
:1015D000482F592FBE01C8010E94520A0E941502CD
:1015E000892B39F084EF92E00E94760C8C2D9D2D92
:1015F0000FC00E941D02892B19F304C080E093E004
:101600000E94760C0E941D02892BC1F78FEF9FEF7D
:10161000DF91CF911F910F91FF90EF90DF90CF90CE
:101620000895CF93DF93CDB7DEB764970FB6F894E4
:10163000DEBF0FBECDBF8AE0E9E0F1E0DE0111962A
:1016400001900D928A95E1F78AE0E3E1F1E0DE0195
:101650001B9601900D928A95E1F745E050E066E017
:1016600073E0CE010B960E94C60A9923B4F3FC01E5
:10167000EE0FFF1F81E090E08C0F9D1FE80FF91F18
:101680000190F081E02D0995E8CFE0E0F0E18EEAED
:10169000808381EA80838AED808382E1808388EC85
:1016A000808388EA80838FE3808385ED808380E870
:1016B000808381E8808380E5808389ED808381E277
:1016C000808380E2808382E080838BED808380E36F
:1016D00080838DEA8083108284EA808386EA808317
:1016E0008FEA80830895883090F490E09C01205523
:1016F0003F4FE0E0F0E12083108220E120839093CF
:101700005203809351031092500310924F03089597
:1017100080389105ACF4282F2F70E0E0F0E12083B1
:101720009C013595279535952795359527953595C0
:1017300027952F70206120839093500380934F034F
:1017400008950E94730B80E890E0E0E0F2E11082DF
:1017500001970097E1F70895CF93C62F0E94730B6E
:101760008C2F90E00E94880BCF910895CF93C0E01A
:101770008C2F0E94A10BCF5FC830D1F760E080E0D2
:101780000E94AC0BCF910895809300120895DF92D0
:10179000EF92FF920F931F93CF93DF9391E02091ED
:1017A0004E03213009F090E0D92ED194C0E0D0E072
:1017B000E82EF12C00E012E1BE01C7010E949E0953
:1017C0008D25F80180832196C530D105A9F7DF91D9
:1017D000CF911F910F91FF90EF90DF900895CF93DD
:1017E000C82F8A3039F020914F03309150032D37A4
:1017F00031056CF120915103309152032F5F3F4F1F
:1018000027703078332334F421503109286F3F6F2B
:101810002F5F3F4F309352032093510320914F038A
:10182000309150032038310544F4E0E0F2E11082B9
:101830002F5F3F4F20383105D1F7809151030E942F
:10184000730B1092500310924F03CA3081F08C2F0B
:101850000E94C70B20914F03309150032B5F3F4FE5
:101860003093500320934F038C2F90E002C08AE006
:1018700090E0CF91089580934E030895FC0120815C
:1018800031812230310521F02630310531F008C098
:10189000FC0183810E94860508950E94C105089578
:1018A00085E393E00E94760C089580EB87BB81E589
:1018B0008DB90895C4980895C49A08958FB9779BF7
:1018C000FECF089580E00E945E0C8FB1089590BD18
:1018D00089B988E18AB908955F9BFECF8CB190E009
:1018E00008955D9BFECF8CB990E00895CF93DF9370
:1018F000EC018881882331F021960E94710C899136
:101900008111FBCFDF91CF910895CF93DF93EC014D
:10191000992334F4D195C195D1098DE20E94710CBF
:10192000CA30D10544F0CE016AE070E00E94A60CF6
:10193000CB010E94850CCE016AE070E00E94A60CEB
:10194000805D0E94710CDF91CF91089597FB072E67
:1019500016F4009407D077FD09D00E94BA0C07FC5A
:1019600005D03EF4909581959F4F089570956195AF
:101970007F4F0895AA1BBB1B51E107C0AA1FBB1FC5
:10198000A617B70710F0A61BB70B881F991F5A950B
:10199000A9F780959095BC01CD0108950F931F93F1
:1019A000CF93DF93EC018B01009731F46115710542
:1019B00019F480E090E038C06EE070E081E090E0E3
:1019C0000E94060FFC010097A1F380E883830115B4
:1019D000110571F01387028781E883838091610389
:1019E00090916203892B21F4F0936203E0936103E9
:1019F0002097C9F0D187C0878381826083838091DB
:101A0000630390916403892B71F4F0936403E09372
:101A100063038091650390916603892B21F4F09311
:101A20006603E0936503CF01DF91CF911F910F9182
:101A30000895A0E0B0E0EFE1FDE00C940611FE0196
:101A4000359661917191AF01809163039091640328
:101A50000E94340DE2E00C942211609163037091B6
:101A600064030E9466100895ACE0B0E0EAE3FDE094
:101A70000C94F6107C016B018A01FC01178216821E
:101A8000838181FFBDC1CE0101964C01F701938195
:101A9000F60193FD859193FF81916F01882309F4ED
:101AA000ABC1853239F493FD859193FF81916F012C
:101AB000853229F4B70190E00E946610E7CF512CDF
:101AC000312C20E02032A0F48B3269F030F48032E7
:101AD00059F0833269F420612CC08D3239F08033A3
:101AE00039F4216026C02260246023C0286021C010
:101AF00027FD27C030ED380F3A3078F426FF06C0B6
:101B0000FAE05F9E300D1124532E13C08AE0389EF8
:101B1000300D1124332E20620CC08E3221F426FDAC
:101B20006BC1206406C08C3611F4206802C0883670
:101B300041F4F60193FD859193FF81916F0181112D
:101B4000C1CF982F9F7D9554933028F40C5F1F4F81
:101B5000FFE3F9830DC0833631F0833771F08335AD
:101B600009F05BC022C0F801808189830E5F1F4F9E
:101B700044244394512C540115C03801F2E06F0EF7
:101B8000711CF801A080B18026FF03C0652D70E0B4
:101B900002C06FEF7FEFC5012C870E945B102C0104
:101BA00083012C852F77222E17C03801F2E06F0EAB
:101BB000711CF801A080B18026FF03C0652D70E084
:101BC00002C06FEF7FEFC5012C870E9449102C01E6
:101BD0002C852068222E830123FC1BC0832D90E0DE
:101BE00048165906B0F4B70180E290E00E946610F2
:101BF0003A94F4CFF50127FC859127FE81915F018E
:101C0000B70190E00E94661031103A94F1E04F1A4B
:101C100051084114510471F7E5C0843611F089363A
:101C200039F5F80127FF07C06081718182819381B6
:101C30000C5F1F4F08C060817181882777FD8095F8
:101C4000982F0E5F1F4F2F76B22E97FF09C09095E9
:101C50008095709561957F4F8F4F9F4F2068B22E72
:101C60002AE030E0A4010E949810A82EA81844C0D1
:101C7000853729F42F7EB22E2AE030E025C0F22FDE
:101C8000F97FBF2E8F36C1F018F4883579F0B4C0D3
:101C9000803719F0883721F0AFC02F2F2061B22E86
:101CA000B4FE0DC08B2D8460B82E09C024FF0AC07D
:101CB0009F2F9660B92E06C028E030E005C020E1D5
:101CC00030E002C020E132E0F801B7FE07C06081D9
:101CD0007181828193810C5F1F4F06C06081718189
:101CE00080E090E00E5F1F4FA4010E949810A82E84
:101CF000A818FB2DFF77BF2EB6FE0BC02B2D2E7F15
:101D0000A51450F4B4FE0AC0B2FC08C02B2D2E7EE0
:101D100005C07A2C2B2D03C07A2C01C0752C24FF12
:101D20000DC0FE01EA0DF11D8081803311F4297E82
:101D300009C022FF06C07394739404C0822F867872
:101D400009F0739423FD13C020FF06C05A2C7314AE
:101D500018F4530C5718732C731468F4B70180E20D
:101D600090E02C870E94661073942C85F5CF731435
:101D700010F4371801C0312C24FF12C0B70180E3E2
:101D800090E02C870E9466102C8522FF17C021FF4F
:101D900003C088E590E002C088E790E0B7010CC07E
:101DA000822F867859F021FD02C080E201C08BE2CB
:101DB00027FD8DE2B70190E00E946610A51438F46B
:101DC000B70180E390E00E9466105A94F7CFAA947E
:101DD000F401EA0DF11D8081B70190E00E946610C8
:101DE000A110F5CF332009F451CEB70180E290E085
:101DF0000E9466103A94F6CFF7018681978102C05F
:101E00008FEF9FEF2C96E2E10C9412110F931F932A
:101E1000CF93DF93869F8001879F100D969F100DB3
:101E20001124C8010E94220FEC01009729F0A8019B
:101E300060E070E00E945410CE01DF91CF911F91BD
:101E40000F910895CF93DF938230910510F482E0D3
:101E500090E0E0916903F0916A0320E030E0A0E0B7
:101E6000B0E0309739F14081518148175907B8F0F7
:101E70004817590771F482819381109729F01396BE
:101E80009C938E9312972CC090936A03809369035E
:101E900027C02115310531F04217530718F0A90169
:101EA000DB0101C0EF019A01BD01DF010280F38176
:101EB000E02DD7CF21153105F9F0281B390B24303F
:101EC000310580F48A819B816115710521F0FB0148
:101ED0009383828304C090936A0380936903FE0115
:101EE000329644C0FE01E20FF31F8193919322507A
:101EF0003109398328833AC0209167033091680300
:101F0000232B41F4209102013091030130936803A7
:101F100020936703209100013091010121153105C3
:101F200041F42DB73EB74091040150910501241BA7
:101F3000350BE0916703F0916803E217F307A0F413
:101F40002E1B3F0B2817390778F0AC014E5F5F4F0F
:101F50002417350748F04E0F5F1F509368034093D6
:101F600067038193919302C0E0E0F0E0CF01DF913D
:101F7000CF910895CF93DF93009709F487C0FC01B8
:101F8000329713821282C0916903D0916A0320971D
:101F900081F420813181280F391F8091670390914E
:101FA00068038217930779F5F0936803E09367035A
:101FB0006DC0DE0120E030E0AE17BF0750F412968E
:101FC0004D915C9113979D014115510509F1DA017D
:101FD000F3CFB383A28340815181840F951F8A1769
:101FE0009B0771F48D919C911197840F951F029618
:101FF0009183808312968D919C9113979383828312
:102000002115310529F4F0936A03E09369033EC07A
:10201000D9011396FC93EE9312974D915D91A40F05
:10202000B51FEA17FB0779F480819181840F951F12
:102030000296D90111969C938E9382819381139677
:102040009C938E931297E0E0F0E08A819B81009749
:1020500019F0FE01EC01F9CFCE01029628813981F9
:10206000820F931F20916703309168032817390767
:1020700069F4309729F410926A031092690302C040
:1020800013821282D0936803C0936703DF91CF91CC
:102090000895FC010590615070400110D8F78095BB
:1020A00090958E0F9F1F0895DC0101C06D934150E4
:1020B0005040E0F70895FC0161507040019001101C
:1020C000D8F7809590958E0F9F1F08950F931F93BB
:1020D000CF93DF93182F092FEB018B8181FD03C074
:1020E0008FEF9FEF20C082FF10C04E815F812C8157
:1020F0003D81421753077CF4E881F9819F012F5FEE
:102100003F4F39832883108306C0E885F985812FE6
:102110000995892B29F72E813F812F5F3F4F3F8300
:102120002E83812F902FDF91CF911F910F910895D2
:10213000FA01AA27283051F1203181F1E8946F93F8
:102140006E7F6E5F7F4F8F4F9F4FAF4FB1E03ED09E
:10215000B4E03CD0670F781F891F9A1FA11D680F3C
:10216000791F8A1F911DA11D6A0F711D811D911D6F
:10217000A11D20D009F468943F912AE0269F1124E4
:102180003019305D3193DEF6CF010895462F477048
:10219000405D4193B3E00FD0C9F7F6CF462F4F70A3
:1021A000405D4A3318F0495D31FD4052419302D001
:1021B000A9F7EACFB4E0A6959795879577956795A7
:1021C000BA95C9F700976105710508959B01AC01A7
:1021D0000A2E06945795479537952795BA95C9F7CE
:1021E000620F731F841F951FA01D08952F923F92A9
:1021F0004F925F926F927F928F929F92AF92BF9217
:10220000CF92DF92EF92FF920F931F93CF93DF93C2
:10221000CDB7DEB7CA1BDB0B0FB6F894DEBF0FBE1F
:10222000CDBF09942A88398848885F846E847D846C
:102230008C849B84AA84B984C884DF80EE80FD806E
:102240000C811B81AA81B981CE0FD11D0FB6F894E4
:0E225000DEBF0FBECDBFED010895F894FFCFA5
:10225E0000006B0320000100049C05AE09B90916AD
:10226E000A210A100319032003280330034D43509B
:10227E0032353135206572726F720A0043414E203D
:10228E006C656E677468206572720A0043414E2059
:10229E00616C6C205458206572720A0043414E20C6
:1022AE006E6F205458206572720A0043414E20739F
:1022BE00656E64206572720A0043414E207265633A
:1022CE0076206572720A0043616E4D3A0A204944C7
:1022DE003A20000A096C656E6774683A20000A0994
:1022EE00646174613A20002C0048656C6C6F205755
:1022FE006F726C642049606D204E6F6465310A0008
:10230E00460A00537461727420696E3A004C656619
:10231E007420427574746F6E3A2052657475726EC5
:10232E00004D69736861703A2025642F33002323B2
:10233E00232047414D45204F56455221202323232C
:10234E0000596F75722053636F72653A20256400D1
:10235E004E6577205265636F72642100436F6E671E
:10236E00726174756C6174696F6E7321005365636D
:10237E006F6E6420626573742053636F7265210003
:10238E00537570657221005374696C6C20696E20F0
:10239E00746F70203321004E6F74206261642100CF
:1023AE004E6F2053636F72652100547279206167FE
:1023BE0061696E2100437265646974733A00544416
:1023CE004B343135350047524F555020313A004D80
:1023DE0061727465004AF8726E00487562657274B7
:1023EE000053636F7265733A00312E2025640032FC
:1023FE002E20256400332E202564004F7074696FE3
:10240E006E733A0053706565642D54756E696E6710
:10241E003A00726967687420427574746F6E3A2060
:10242E00636F6E6669726D21004279652120427973
:10243E0065210020636F6E6669726D200025730042
:10244E00202020004A5320707265737365640A0061
:10245E007265742D31004D61696E204D656E75008B
:10246E004E65772047616D650053636F726573002B
:10247E004F7074696F6E7300437265646974730094
:10248E0051756974006D73674944206572720A0054
:00000001FF
